20230425-01:19:52.813761000 : 8=FIX.4.4|9=114|35=A|34=1|49=CRYPTO_TRADER_4|52=20230425-01:19:52.813|56=FIX_GWY_2|98=0|108=30|141=Y|553=CRYPTO_TRADER_4|554=TEST|10=072|
20230425-01:20:22.785674000 : 8=FIX.4.4|9=114|35=A|34=1|49=CRYPTO_TRADER_4|52=20230425-01:20:22.785|56=FIX_GWY_2|98=0|108=30|141=Y|553=CRYPTO_TRADER_4|554=TEST|10=069|
20230425-01:20:52.692473000 : 8=FIX.4.4|9=114|35=A|34=1|49=CRYPTO_TRADER_4|52=20230425-01:20:52.692|56=FIX_GWY_2|98=0|108=30|141=Y|553=CRYPTO_TRADER_4|554=TEST|10=069|
20230425-01:21:22.534170000 : 8=FIX.4.4|9=114|35=A|34=1|49=CRYPTO_TRADER_4|52=20230425-01:21:22.533|56=FIX_GWY_2|98=0|108=30|141=Y|553=CRYPTO_TRADER_4|554=TEST|10=061|
20230425-01:21:52.298704000 : 8=FIX.4.4|9=114|35=A|34=1|49=CRYPTO_TRADER_4|52=20230425-01:21:52.298|56=FIX_GWY_2|98=0|108=30|141=Y|553=CRYPTO_TRADER_4|554=TEST|10=072|
20230425-01:22:22.974498000 : 8=FIX.4.4|9=114|35=A|34=1|49=CRYPTO_TRADER_4|52=20230425-01:22:22.974|56=FIX_GWY_2|98=0|108=30|141=Y|553=CRYPTO_TRADER_4|554=TEST|10=071|
20230425-01:22:52.593112000 : 8=FIX.4.4|9=114|35=A|34=1|49=CRYPTO_TRADER_4|52=20230425-01:22:52.592|56=FIX_GWY_2|98=0|108=30|141=Y|553=CRYPTO_TRADER_4|554=TEST|10=070|
20230425-01:23:22.138563000 : 8=FIX.4.4|9=114|35=A|34=1|49=CRYPTO_TRADER_4|52=20230425-01:23:22.138|56=FIX_GWY_2|98=0|108=30|141=Y|553=CRYPTO_TRADER_4|554=TEST|10=064|
20230425-01:23:52.608433000 : 8=FIX.4.4|9=114|35=A|34=1|49=CRYPTO_TRADER_4|52=20230425-01:23:52.608|56=FIX_GWY_2|98=0|108=30|141=Y|553=CRYPTO_TRADER_4|554=TEST|10=069|
20230425-01:24:22.027728000 : 8=FIX.4.4|9=114|35=A|34=1|49=CRYPTO_TRADER_4|52=20230425-01:24:22.027|56=FIX_GWY_2|98=0|108=30|141=Y|553=CRYPTO_TRADER_4|554=TEST|10=062|
20230425-01:24:52.362933000 : 8=FIX.4.4|9=114|35=A|34=1|49=CRYPTO_TRADER_4|52=20230425-01:24:52.362|56=FIX_GWY_2|98=0|108=30|141=Y|553=CRYPTO_TRADER_4|554=TEST|10=067|
20230425-01:25:22.629407000 : 8=FIX.4.4|9=114|35=A|34=1|49=CRYPTO_TRADER_4|52=20230425-01:25:22.629|56=FIX_GWY_2|98=0|108=30|141=Y|553=CRYPTO_TRADER_4|554=TEST|10=071|
20230425-01:25:52.820873000 : 8=FIX.4.4|9=114|35=A|34=1|49=CRYPTO_TRADER_4|52=20230425-01:25:52.820|56=FIX_GWY_2|98=0|108=30|141=Y|553=CRYPTO_TRADER_4|554=TEST|10=067|
20230425-01:26:22.946508000 : 8=FIX.4.4|9=114|35=A|34=1|49=CRYPTO_TRADER_4|52=20230425-01:26:22.946|56=FIX_GWY_2|98=0|108=30|141=Y|553=CRYPTO_TRADER_4|554=TEST|10=074|
20230425-01:26:52.036326000 : 8=FIX.4.4|9=114|35=A|34=1|49=CRYPTO_TRADER_4|52=20230425-01:26:52.036|56=FIX_GWY_2|98=0|108=30|141=Y|553=CRYPTO_TRADER_4|554=TEST|10=067|
20230425-01:27:22.029940000 : 8=FIX.4.4|9=114|35=A|34=1|49=CRYPTO_TRADER_4|52=20230425-01:27:22.029|56=FIX_GWY_2|98=0|108=30|141=Y|553=CRYPTO_TRADER_4|554=TEST|10=067|
20230425-01:27:52.922581000 : 8=FIX.4.4|9=114|35=A|34=1|49=CRYPTO_TRADER_4|52=20230425-01:27:52.922|56=FIX_GWY_2|98=0|108=30|141=Y|553=CRYPTO_TRADER_4|554=TEST|10=072|
20230425-01:28:22.770890000 : 8=FIX.4.4|9=114|35=A|34=1|49=CRYPTO_TRADER_4|52=20230425-01:28:22.770|56=FIX_GWY_2|98=0|108=30|141=Y|553=CRYPTO_TRADER_4|554=TEST|10=071|
20230425-01:28:52.552217000 : 8=FIX.4.4|9=114|35=A|34=1|49=CRYPTO_TRADER_4|52=20230425-01:28:52.552|56=FIX_GWY_2|98=0|108=30|141=Y|553=CRYPTO_TRADER_4|554=TEST|10=072|
20230425-01:29:22.267411000 : 8=FIX.4.4|9=114|35=A|34=1|49=CRYPTO_TRADER_4|52=20230425-01:29:22.267|56=FIX_GWY_2|98=0|108=30|141=Y|553=CRYPTO_TRADER_4|554=TEST|10=073|
20230425-01:29:52.871910000 : 8=FIX.4.4|9=114|35=A|34=1|49=CRYPTO_TRADER_4|52=20230425-01:29:52.871|56=FIX_GWY_2|98=0|108=30|141=Y|553=CRYPTO_TRADER_4|554=TEST|10=077|
20230425-01:30:22.447326000 : 8=FIX.4.4|9=114|35=A|34=1|49=CRYPTO_TRADER_4|52=20230425-01:30:22.447|56=FIX_GWY_2|98=0|108=30|141=Y|553=CRYPTO_TRADER_4|554=TEST|10=065|
20230425-01:30:52.912699000 : 8=FIX.4.4|9=114|35=A|34=1|49=CRYPTO_TRADER_4|52=20230425-01:30:52.912|56=FIX_GWY_2|98=0|108=30|141=Y|553=CRYPTO_TRADER_4|554=TEST|10=065|
20230425-01:31:22.358374000 : 8=FIX.4.4|9=114|35=A|34=1|49=CRYPTO_TRADER_4|52=20230425-01:31:22.358|56=FIX_GWY_2|98=0|108=30|141=Y|553=CRYPTO_TRADER_4|554=TEST|10=067|
20230425-01:31:52.683990000 : 8=FIX.4.4|9=114|35=A|34=1|49=CRYPTO_TRADER_4|52=20230425-01:31:52.683|56=FIX_GWY_2|98=0|108=30|141=Y|553=CRYPTO_TRADER_4|554=TEST|10=071|
20230425-01:32:22.947275000 : 8=FIX.4.4|9=114|35=A|34=1|49=CRYPTO_TRADER_4|52=20230425-01:32:22.947|56=FIX_GWY_2|98=0|108=30|141=Y|553=CRYPTO_TRADER_4|554=TEST|10=072|
20230425-01:32:52.195319000 : 8=FIX.4.4|9=114|35=A|34=1|49=CRYPTO_TRADER_4|52=20230425-01:32:52.195|56=FIX_GWY_2|98=0|108=30|141=Y|553=CRYPTO_TRADER_4|554=TEST|10=070|
20230425-01:33:22.320268000 : 8=FIX.4.4|9=114|35=A|34=1|49=CRYPTO_TRADER_4|52=20230425-01:33:22.320|56=FIX_GWY_2|98=0|108=30|141=Y|553=CRYPTO_TRADER_4|554=TEST|10=058|
20230425-01:33:31.308592000 : 8=FIX.4.4|9=114|35=A|34=1|49=CRYPTO_TRADER_4|52=20230425-01:33:31.308|56=FIX_GWY_2|98=0|108=30|141=Y|553=CRYPTO_TRADER_4|554=TEST|10=064|
