8=FIX.4.4|9=114|35=A|34=1|49=CRYPTO_TRADER_4|52=20230425-01:33:31.308|56=FIX_GWY_2|98=0|108=30|141=Y|553=CRYPTO_TRADER_4|554=TEST|10=064|